{
  "_format": "hh-sol-artifact-1",
  "contractName": "HelloBlock",
  "sourceName": "contracts/hello-block.sol",
  "abi": [
    {
      "inputs": [],
      "name": "SayHello",
      "outputs": [
        {
          "internalType": "string",
          "name": "",
          "type": "string"
        }
      ],
      "stateMutability": "pure",
      "type": "function"
    }
  ],
  "bytecode": "0x6080604052348015600f57600080fd5b506101738061001f6000396000f3fe608060405234801561001057600080fd5b506004361061002b5760003560e01c80633acb315014610030575b600080fd5b61003861004e565b604051610045919061011b565b60405180910390f35b60606040518060400160405280600c81526020017f48656c6c6f20426c6f636b210000000000000000000000000000000000000000815250905090565b600081519050919050565b600082825260208201905092915050565b60005b838110156100c55780820151818401526020810190506100aa565b60008484015250505050565b6000601f19601f8301169050919050565b60006100ed8261008b565b6100f78185610096565b93506101078185602086016100a7565b610110816100d1565b840191505092915050565b6000602082019050818103600083015261013581846100e2565b90509291505056fea2646970667358221220de1df7a7da56bce24429a300fd993d9df7465613f5f16c6a6e054524e02c7cb464736f6c634300081c0033",
  "linkReferences": {},
  "deployedLinkReferences": {}
}